{
  "address": "0x94b657509b2fd076ad3e4b6035167879ded67cbb",
  "abi": [
    {
      "inputs": [],
      "stateMutability": "nonpayable",
      "type": "constructor"
    },
    {
      "inputs": [],
      "name": "AmountRequestedExceedsMaxSupply",
      "type": "error"
    },
    {
      "inputs": [],
      "name": "ExceedsMaxAllowableSupply",
      "type": "error"
    },
    {
      "inputs": [],
      "name": "MustBeGreaterThanCurrentMaxSupply",
      "type": "error"
    },
    {
      "inputs": [],
      "name": "RaiseHasNotSucceeded",
      "type": "error"
    },
    {
      "inputs": [],
      "name": "RaiseNotOpen",
      "type": "error"
    },
    {
      "inputs": [],
      "name": "RefundsNotOpen",
      "type": "error"
    },
    {
      "inputs": [],
      "name": "ValueUnchanged",
      "type": "error"
    },
    {
      "inputs": [],
      "name": "ZeroBalance",
      "type": "error"
    },
    {
      "anonymous": false,
      "inputs": [
        {
          "indexed": true,
          "internalType": "address",
          "name": "owner",
          "type": "address"
        },
        {
          "indexed": true,
          "internalType": "address",
          "name": "spender",
          "type": "address"
        },
        {
          "indexed": false,
          "internalType": "uint256",
          "name": "value",
          "type": "uint256"
        }
      ],
      "name": "Approval",
      "type": "event"
    },
    {
      "anonymous": false,
      "inputs": [
        {
          "indexed": true,
          "internalType": "address",
          "name": "delegator",
          "type": "address"
        },
        {
          "indexed": true,
          "internalType": "address",
          "name": "fromDelegate",
          "type": "address"
        },
        {
          "indexed": true,
          "internalType": "address",
          "name": "toDelegate",
          "type": "address"
        }
      ],
      "name": "DelegateChanged",
      "type": "event"
    },
    {
      "anonymous": false,
      "inputs": [
        {
          "indexed": true,
          "internalType": "address",
          "name": "delegate",
          "type": "address"
        },
        {
          "indexed": false,
          "internalType": "uint256",
          "name": "previousBalance",
          "type": "uint256"
        },
        {
          "indexed": false,
          "internalType": "uint256",
          "name": "newBalance",
          "type": "uint256"
        }
      ],
      "name": "DelegateVotesChanged",
      "type": "event"
    },
    {
      "anonymous": false,
      "inputs": [
        {
          "indexed": false,
          "internalType": "uint256",
          "name": "oldMaxSupply",
          "type": "uint256"
        },
        {
          "indexed": false,
          "internalType": "uint256",
          "name": "newMaxSupply",
          "type": "uint256"
        }
      ],
      "name": "MaxSupplyUpdated",
      "type": "event"
    },
    {
      "anonymous": false,
      "inputs": [
        {
          "indexed": true,
          "internalType": "address",
          "name": "previousOwner",
          "type": "address"
        },
        {
          "indexed": true,
          "internalType": "address",
          "name": "newOwner",
          "type": "address"
        }
      ],
      "name": "OwnershipTransferred",
      "type": "event"
    },
    {
      "anonymous": false,
      "inputs": [
        {
          "indexed": true,
          "internalType": "address",
          "name": "to",
          "type": "address"
        },
        {
          "indexed": false,
          "internalType": "uint256",
          "name": "amount",
          "type": "uint256"
        }
      ],
      "name": "PostSuccessEtherTransfer",
      "type": "event"
    },
    {
      "anonymous": false,
      "inputs": [
        {
          "indexed": false,
          "internalType": "uint256",
          "name": "oldRaiseEndTimestamp",
          "type": "uint256"
        },
        {
          "indexed": false,
          "internalType": "uint256",
          "name": "newRaiseEndTimestamp",
          "type": "uint256"
        }
      ],
      "name": "RaiseEndTimestampUpdated",
      "type": "event"
    },
    {
      "anonymous": false,
      "inputs": [
        {
          "indexed": false,
          "internalType": "enum RaiseState",
          "name": "oldRaiseState",
          "type": "uint8"
        },
        {
          "indexed": false,
          "internalType": "enum RaiseState",
          "name": "newRaiseState",
          "type": "uint8"
        }
      ],
      "name": "RaiseStateUpdated",
      "type": "event"
    },
    {
      "anonymous": false,
      "inputs": [
        {
          "indexed": true,
          "internalType": "address",
          "name": "from",
          "type": "address"
        },
        {
          "indexed": true,
          "internalType": "address",
          "name": "to",
          "type": "address"
        },
        {
          "indexed": false,
          "internalType": "uint256",
          "name": "value",
          "type": "uint256"
        }
      ],
      "name": "Transfer",
      "type": "event"
    },
    {
      "inputs": [],
      "name": "DOMAIN_SEPARATOR",
      "outputs": [
        {
          "internalType": "bytes32",
          "name": "",
          "type": "bytes32"
        }
      ],
      "stateMutability": "view",
      "type": "function"
    },
    {
      "inputs": [],
      "name": "MAX_ALLOWABLE_SUPPLY",
      "outputs": [
        {
          "internalType": "uint256",
          "name": "",
          "type": "uint256"
        }
      ],
      "stateMutability": "view",
      "type": "function"
    },
    {
      "inputs": [
        {
          "internalType": "address",
          "name": "owner",
          "type": "address"
        },
        {
          "internalType": "address",
          "name": "spender",
          "type": "address"
        }
      ],
      "name": "allowance",
      "outputs": [
        {
          "internalType": "uint256",
          "name": "",
          "type": "uint256"
        }
      ],
      "stateMutability": "view",
      "type": "function"
    },
    {
      "inputs": [
        {
          "internalType": "address",
          "name": "spender",
          "type": "address"
        },
        {
          "internalType": "uint256",
          "name": "amount",
          "type": "uint256"
        }
      ],
      "name": "approve",
      "outputs": [
        {
          "internalType": "bool",
          "name": "",
          "type": "bool"
        }
      ],
      "stateMutability": "nonpayable",
      "type": "function"
    },
    {
      "inputs": [
        {
          "internalType": "address",
          "name": "account",
          "type": "address"
        }
      ],
      "name": "balanceOf",
      "outputs": [
        {
          "internalType": "uint256",
          "name": "",
          "type": "uint256"
        }
      ],
      "stateMutability": "view",
      "type": "function"
    },
    {
      "inputs": [
        {
          "internalType": "address",
          "name": "account",
          "type": "address"
        },
        {
          "internalType": "uint32",
          "name": "pos",
          "type": "uint32"
        }
      ],
      "name": "checkpoints",
      "outputs": [
        {
          "components": [
            {
              "internalType": "uint32",
              "name": "fromBlock",
              "type": "uint32"
            },
            {
              "internalType": "uint224",
              "name": "votes",
              "type": "uint224"
            }
          ],
          "internalType": "struct ERC20Votes.Checkpoint",
          "name": "",
          "type": "tuple"
        }
      ],
      "stateMutability": "view",
      "type": "function"
    },
    {
      "inputs": [],
      "name": "decimals",
      "outputs": [
        {
          "internalType": "uint8",
          "name": "",
          "type": "uint8"
        }
      ],
      "stateMutability": "view",
      "type": "function"
    },
    {
      "inputs": [
        {
          "internalType": "address",
          "name": "spender",
          "type": "address"
        },
        {
          "internalType": "uint256",
          "name": "subtractedValue",
          "type": "uint256"
        }
      ],
      "name": "decreaseAllowance",
      "outputs": [
        {
          "internalType": "bool",
          "name": "",
          "type": "bool"
        }
      ],
      "stateMutability": "nonpayable",
      "type": "function"
    },
    {
      "inputs": [
        {
          "internalType": "address",
          "name": "delegatee",
          "type": "address"
        }
      ],
      "name": "delegate",
      "outputs": [],
      "stateMutability": "nonpayable",
      "type": "function"
    },
    {
      "inputs": [
        {
          "internalType": "address",
          "name": "delegatee",
          "type": "address"
        },
        {
          "internalType": "uint256",
          "name": "nonce",
          "type": "uint256"
        },
        {
          "internalType": "uint256",
          "name": "expiry",
          "type": "uint256"
        },
        {
          "internalType": "uint8",
          "name": "v",
          "type": "uint8"
        },
        {
          "internalType": "bytes32",
          "name": "r",
          "type": "bytes32"
        },
        {
          "internalType": "bytes32",
          "name": "s",
          "type": "bytes32"
        }
      ],
      "name": "delegateBySig",
      "outputs": [],
      "stateMutability": "nonpayable",
      "type": "function"
    },
    {
      "inputs": [
        {
          "internalType": "address",
          "name": "account",
          "type": "address"
        }
      ],
      "name": "delegates",
      "outputs": [
        {
          "internalType": "address",
          "name": "",
          "type": "address"
        }
      ],
      "stateMutability": "view",
      "type": "function"
    },
    {
      "inputs": [
        {
          "internalType": "uint256",
          "name": "blockNumber",
          "type": "uint256"
        }
      ],
      "name": "getPastTotalSupply",
      "outputs": [
        {
          "internalType": "uint256",
          "name": "",
          "type": "uint256"
        }
      ],
      "stateMutability": "view",
      "type": "function"
    },
    {
      "inputs": [
        {
          "internalType": "address",
          "name": "account",
          "type": "address"
        },
        {
          "internalType": "uint256",
          "name": "blockNumber",
          "type": "uint256"
        }
      ],
      "name": "getPastVotes",
      "outputs": [
        {
          "internalType": "uint256",
          "name": "",
          "type": "uint256"
        }
      ],
      "stateMutability": "view",
      "type": "function"
    },
    {
      "inputs": [
        {
          "internalType": "address",
          "name": "account",
          "type": "address"
        }
      ],
      "name": "getVotes",
      "outputs": [
        {
          "internalType": "uint256",
          "name": "",
          "type": "uint256"
        }
      ],
      "stateMutability": "view",
      "type": "function"
    },
    {
      "inputs": [
        {
          "internalType": "address",
          "name": "spender",
          "type": "address"
        },
        {
          "internalType": "uint256",
          "name": "addedValue",
          "type": "uint256"
        }
      ],
      "name": "increaseAllowance",
      "outputs": [
        {
          "internalType": "bool",
          "name": "",
          "type": "bool"
        }
      ],
      "stateMutability": "nonpayable",
      "type": "function"
    },
    {
      "inputs": [],
      "name": "maxSupply",
      "outputs": [
        {
          "internalType": "uint256",
          "name": "",
          "type": "uint256"
        }
      ],
      "stateMutability": "view",
      "type": "function"
    },
    {
      "inputs": [],
      "name": "mint",
      "outputs": [],
      "stateMutability": "payable",
      "type": "function"
    },
    {
      "inputs": [],
      "name": "name",
      "outputs": [
        {
          "internalType": "string",
          "name": "",
          "type": "string"
        }
      ],
      "stateMutability": "view",
      "type": "function"
    },
    {
      "inputs": [
        {
          "internalType": "address",
          "name": "owner",
          "type": "address"
        }
      ],
      "name": "nonces",
      "outputs": [
        {
          "internalType": "uint256",
          "name": "",
          "type": "uint256"
        }
      ],
      "stateMutability": "view",
      "type": "function"
    },
    {
      "inputs": [
        {
          "internalType": "address",
          "name": "account",
          "type": "address"
        }
      ],
      "name": "numCheckpoints",
      "outputs": [
        {
          "internalType": "uint32",
          "name": "",
          "type": "uint32"
        }
      ],
      "stateMutability": "view",
      "type": "function"
    },
    {
      "inputs": [],
      "name": "owner",
      "outputs": [
        {
          "internalType": "address",
          "name": "",
          "type": "address"
        }
      ],
      "stateMutability": "view",
      "type": "function"
    },
    {
      "inputs": [
        {
          "internalType": "address",
          "name": "owner",
          "type": "address"
        },
        {
          "internalType": "address",
          "name": "spender",
          "type": "address"
        },
        {
          "internalType": "uint256",
          "name": "value",
          "type": "uint256"
        },
        {
          "internalType": "uint256",
          "name": "deadline",
          "type": "uint256"
        },
        {
          "internalType": "uint8",
          "name": "v",
          "type": "uint8"
        },
        {
          "internalType": "bytes32",
          "name": "r",
          "type": "bytes32"
        },
        {
          "internalType": "bytes32",
          "name": "s",
          "type": "bytes32"
        }
      ],
      "name": "permit",
      "outputs": [],
      "stateMutability": "nonpayable",
      "type": "function"
    },
    {
      "inputs": [
        {
          "internalType": "address",
          "name": "account",
          "type": "address"
        },
        {
          "internalType": "uint256",
          "name": "amount",
          "type": "uint256"
        }
      ],
      "name": "postSuccessTransfer",
      "outputs": [],
      "stateMutability": "nonpayable",
      "type": "function"
    },
    {
      "inputs": [],
      "name": "raiseEndTimestamp",
      "outputs": [
        {
          "internalType": "uint256",
          "name": "",
          "type": "uint256"
        }
      ],
      "stateMutability": "view",
      "type": "function"
    },
    {
      "inputs": [],
      "name": "raiseState",
      "outputs": [
        {
          "internalType": "enum RaiseState",
          "name": "",
          "type": "uint8"
        }
      ],
      "stateMutability": "view",
      "type": "function"
    },
    {
      "inputs": [],
      "name": "refund",
      "outputs": [],
      "stateMutability": "nonpayable",
      "type": "function"
    },
    {
      "inputs": [],
      "name": "refundsOpen",
      "outputs": [
        {
          "internalType": "bool",
          "name": "open",
          "type": "bool"
        }
      ],
      "stateMutability": "view",
      "type": "function"
    },
    {
      "inputs": [],
      "name": "renounceOwnership",
      "outputs": [],
      "stateMutability": "nonpayable",
      "type": "function"
    },
    {
      "inputs": [
        {
          "internalType": "uint256",
          "name": "maxSupply_",
          "type": "uint256"
        }
      ],
      "name": "setMaxSupply",
      "outputs": [],
      "stateMutability": "nonpayable",
      "type": "function"
    },
    {
      "inputs": [
        {
          "internalType": "uint256",
          "name": "raiseEndTimestamp_",
          "type": "uint256"
        }
      ],
      "name": "setRaiseEndTimestamp",
      "outputs": [],
      "stateMutability": "nonpayable",
      "type": "function"
    },
    {
      "inputs": [
        {
          "internalType": "enum RaiseState",
          "name": "raiseState_",
          "type": "uint8"
        }
      ],
      "name": "setRaiseState",
      "outputs": [],
      "stateMutability": "nonpayable",
      "type": "function"
    },
    {
      "inputs": [],
      "name": "symbol",
      "outputs": [
        {
          "internalType": "string",
          "name": "",
          "type": "string"
        }
      ],
      "stateMutability": "view",
      "type": "function"
    },
    {
      "inputs": [],
      "name": "totalSupply",
      "outputs": [
        {
          "internalType": "uint256",
          "name": "",
          "type": "uint256"
        }
      ],
      "stateMutability": "view",
      "type": "function"
    },
    {
      "inputs": [
        {
          "internalType": "address",
          "name": "to",
          "type": "address"
        },
        {
          "internalType": "uint256",
          "name": "amount",
          "type": "uint256"
        }
      ],
      "name": "transfer",
      "outputs": [
        {
          "internalType": "bool",
          "name": "",
          "type": "bool"
        }
      ],
      "stateMutability": "nonpayable",
      "type": "function"
    },
    {
      "inputs": [
        {
          "internalType": "address",
          "name": "from",
          "type": "address"
        },
        {
          "internalType": "address",
          "name": "to",
          "type": "address"
        },
        {
          "internalType": "uint256",
          "name": "amount",
          "type": "uint256"
        }
      ],
      "name": "transferFrom",
      "outputs": [
        {
          "internalType": "bool",
          "name": "",
          "type": "bool"
        }
      ],
      "stateMutability": "nonpayable",
      "type": "function"
    },
    {
      "inputs": [
        {
          "internalType": "address",
          "name": "newOwner",
          "type": "address"
        }
      ],
      "name": "transferOwnership",
      "outputs": [],
      "stateMutability": "nonpayable",
      "type": "function"
    }
  ],
  "transactionHash": "0x26700796170c94a3987678e3b566591667f554437b3a67813ef034cc384f2df6",
  "args": [],
  "numDeployments": 2,
  "solcInputHash": "f451a07a1b9549c56153f105ba9a83fa",
  "bytecode": "0x6101606040527f6e71edae12b1b97f4d1f60370fef10105fa2faae0126114a169c64845d6126c961014052620000386012600a620003e8565b6200004790621e848062000400565b600b55600c805460ff1916905562000063426228de8062000422565b600d553480156200007357600080fd5b506040518060400160405280600a8152602001694368656c73656144414f60b01b81525080604051806040016040528060018152602001603160f81b8152506040518060400160405280600a8152602001694368656c73656144414f60b01b8152506040518060400160405280600681526020016543464344414f60d01b8152506200010e62000108620001d960201b60201c565b620001dd565b600180558151620001279060059060208501906200022d565b5080516200013d9060069060208401906200022d565b5050825160208085019190912083518483012060e08290526101008190524660a0818152604080517f8b73c3c69bb8fe3d512ecc4cf759cc79239f7b179b0ffacaa9a75d522b39400f81880181905281830187905260608201869052608082019490945230818401528151808203909301835260c0019052805194019390932091935091906080523060c05261012052506200047a9350505050565b3390565b600080546001600160a01b038381166001600160a01b0319831681178455604051919092169283917f8be0079c531659141344cd1fd0a4f28419497f9722a3daafe3b4186f6b6457e09190a35050565b8280546200023b906200043d565b90600052602060002090601f0160209004810192826200025f5760008555620002aa565b82601f106200027a57805160ff1916838001178555620002aa565b82800160010185558215620002aa579182015b82811115620002aa5782518255916020019190600101906200028d565b50620002b8929150620002bc565b5090565b5b80821115620002b85760008155600101620002bd565b634e487b7160e01b600052601160045260246000fd5b600181815b808511156200032a5781600019048211156200030e576200030e620002d3565b808516156200031c57918102915b93841c9390800290620002ee565b509250929050565b6000826200034357506001620003e2565b816200035257506000620003e2565b81600181146200036b5760028114620003765762000396565b6001915050620003e2565b60ff8411156200038a576200038a620002d3565b50506001821b620003e2565b5060208310610133831016604e8410600b8410161715620003bb575081810a620003e2565b620003c78383620002e9565b8060001904821115620003de57620003de620002d3565b0290505b92915050565b6000620003f960ff84168362000332565b9392505050565b60008160001904831182151516156200041d576200041d620002d3565b500290565b60008219821115620004385762000438620002d3565b500190565b600181811c908216806200045257607f821691505b602082108114156200047457634e487b7160e01b600052602260045260246000fd5b50919050565b60805160a05160c05160e051610100516101205161014051612889620004d560003960006110e301526000611731015260006117800152600061175b015260006116b4015260006116de0152600061170801526128896000f3fe60806040526004361061020f5760003560e01c806370a0823111610118578063a4fc335b116100a0578063d505accf1161006f578063d505accf1461060f578063d5abeb011461062f578063dd62ed3e14610645578063f1127ed81461068b578063f2fde38b146106d557600080fd5b8063a4fc335b14610588578063a9059cbb146105a8578063b6b6a6ae146105c8578063c3cda520146105ef57600080fd5b80638e539e8c116100e75780638e539e8c146104f357806395d89b41146105135780639ab24eb014610528578063a3d54ecd14610548578063a457c2d71461056857600080fd5b806370a082311461046a578063715018a6146104a05780637ecebe00146104b55780638da5cb5b146104d557600080fd5b8063384c907e1161019b578063590e1ae31161016a578063590e1ae3146103ca5780635942eaed146103df5780635c19a95c146103f55780636f8b44b0146104155780636fcfff451461043557600080fd5b8063384c907e1461031957806339509351146103395780633a46b1a814610359578063587cde1e1461037957600080fd5b80631249c58b116101e25780631249c58b146102a957806318160ddd146102b357806323b872dd146102c8578063313ce567146102e85780633644e5151461030457600080fd5b80630694d1be1461021457806306fdde031461023e578063095ea7b3146102605780630f5c1c2f14610280575b600080fd5b34801561022057600080fd5b506102296106f5565b60405190151581526020015b60405180910390f35b34801561024a57600080fd5b50610253610744565b6040516102359190612499565b34801561026c57600080fd5b5061022961027b36600461250a565b6107d6565b34801561028c57600080fd5b5061029b6001600160e01b0381565b604051908152602001610235565b6102b16107f0565b005b3480156102bf57600080fd5b5060045461029b565b3480156102d457600080fd5b506102296102e3366004612534565b610868565b3480156102f457600080fd5b5060405160128152602001610235565b34801561031057600080fd5b5061029b61088e565b34801561032557600080fd5b506102b161033436600461250a565b610898565b34801561034557600080fd5b5061022961035436600461250a565b6109ab565b34801561036557600080fd5b5061029b61037436600461250a565b6109ea565b34801561038557600080fd5b506103b2610394366004612570565b6001600160a01b039081166000908152600860205260409020541690565b6040516001600160a01b039091168152602001610235565b3480156103d657600080fd5b506102b1610a5d565b3480156103eb57600080fd5b5061029b600d5481565b34801561040157600080fd5b506102b1610410366004612570565b610b25565b34801561042157600080fd5b506102b161043036600461258b565b610b32565b34801561044157600080fd5b50610455610450366004612570565b610bec565b60405163ffffffff9091168152602001610235565b34801561047657600080fd5b5061029b610485366004612570565b6001600160a01b031660009081526002602052604090205490565b3480156104ac57600080fd5b506102b1610c0e565b3480156104c157600080fd5b5061029b6104d0366004612570565b610c42565b3480156104e157600080fd5b506000546001600160a01b03166103b2565b3480156104ff57600080fd5b5061029b61050e36600461258b565b610c60565b34801561051f57600080fd5b50610253610cbc565b34801561053457600080fd5b5061029b610543366004612570565b610ccb565b34801561055457600080fd5b506102b16105633660046125a4565b610d52565b34801561057457600080fd5b5061022961058336600461250a565b610e23565b34801561059457600080fd5b506102b16105a336600461258b565b610ec0565b3480156105b457600080fd5b506102296105c336600461250a565b610f4b565b3480156105d457600080fd5b50600c546105e29060ff1681565b60405161023591906125fd565b3480156105fb57600080fd5b506102b161060a36600461261c565b610f59565b34801561061b57600080fd5b506102b161062a366004612674565b61108f565b34801561063b57600080fd5b5061029b600b5481565b34801561065157600080fd5b5061029b6106603660046126de565b6001600160a01b03918216600090815260036020908152604080832093909416825291909152205490565b34801561069757600080fd5b506106ab6106a6366004612711565b6111f3565b60408051825163ffffffff1681526020928301516001600160e01b03169281019290925201610235565b3480156106e157600080fd5b506102b16106f0366004612570565b611277565b60006001600c5460ff166002811115610710576107106125c5565b148061073f57506000600c5460ff166002811115610730576107306125c5565b14801561073f5750600d544210155b905090565b60606005805461075390612751565b80601f016020809104026020016040519081016040528092919081815260200182805461077f90612751565b80156107cc5780601f106107a1576101008083540402835291602001916107cc565b820191906000526020600020905b8154815290600101906020018083116107af57829003601f168201915b5050505050905090565b6000336107e481858561130f565b60019150505b92915050565b6000600c5460ff166002811115610809576108096125c5565b146108275760405163678164a160e11b815260040160405180910390fd5b600b543461083460045490565b61083e919061279c565b111561085c57604051623211eb60e01b815260040160405180910390fd5b6108663334611433565b565b600033610876858285611441565b6108818585856114d3565b60019150505b9392505050565b600061073f6116a7565b600260015414156108f05760405162461bcd60e51b815260206004820152601f60248201527f5265656e7472616e637947756172643a207265656e7472616e742063616c6c0060448201526064015b60405180910390fd5b60026001556000546001600160a01b0316331461091f5760405162461bcd60e51b81526004016108e7906127b4565b6002600c5460ff166002811115610938576109386125c5565b1461095657604051638ca14f7560e01b815260040160405180910390fd5b61096082826117ce565b816001600160a01b03167f5a92cb9725cb94c4d4cf91203a976e8bbfba1abb6e8c7b5552c229f99d5e3af28260405161099b91815260200190565b60405180910390a2505060018055565b3360008181526003602090815260408083206001600160a01b03871684529091528120549091906107e490829086906109e590879061279c565b61130f565b6000438210610a3b5760405162461bcd60e51b815260206004820152601f60248201527f4552433230566f7465733a20626c6f636b206e6f7420796574206d696e65640060448201526064016108e7565b6001600160a01b038316600090815260096020526040902061088790836118ec565b60026001541415610ab05760405162461bcd60e51b815260206004820152601f60248201527f5265656e7472616e637947756172643a207265656e7472616e742063616c6c0060448201526064016108e7565b6002600155610abd6106f5565b1515600114610adf576040516373312cab60e11b815260040160405180910390fd5b6000610aea33610485565b905080610b0a5760405163334ab3f560e11b815260040160405180910390fd5b610b1433826119a9565b610b1e33826117ce565b5060018055565b610b2f33826119b3565b50565b6000546001600160a01b03163314610b5c5760405162461bcd60e51b81526004016108e7906127b4565b6001600160e01b03811115610b8457604051632756226d60e01b815260040160405180910390fd5b600b548111610ba657604051636b396e8960e01b815260040160405180910390fd5b600b80549082905560408051828152602081018490527f44ecfc706d63e347851cfd40acfa6cf2e3a41faa3e8b460210c03938e84a91ad91015b60405180910390a15050565b6001600160a01b0381166000908152600960205260408120546107ea90611a2d565b6000546001600160a01b03163314610c385760405162461bcd60e51b81526004016108e7906127b4565b6108666000611a96565b6001600160a01b0381166000908152600760205260408120546107ea565b6000438210610cb15760405162461bcd60e51b815260206004820152601f60248201527f4552433230566f7465733a20626c6f636b206e6f7420796574206d696e65640060448201526064016108e7565b6107ea600a836118ec565b60606006805461075390612751565b6001600160a01b0381166000908152600960205260408120548015610d3f576001600160a01b0383166000908152600960205260409020610d0d6001836127e9565b81548110610d1d57610d1d612800565b60009182526020909120015464010000000090046001600160e01b0316610d42565b60005b6001600160e01b03169392505050565b6000546001600160a01b03163314610d7c5760405162461bcd60e51b81526004016108e7906127b4565b806002811115610d8e57610d8e6125c5565b600c5460ff166002811115610da557610da56125c5565b1415610dc45760405163df82d43b60e01b815260040160405180910390fd5b600c805460ff811691839160ff19166001836002811115610de757610de76125c5565b0217905550600c546040517ffe02c6871784105580138564b08f78792522f524c5c33d2b08f75a99d7eaea7691610be091849160ff1690612816565b3360008181526003602090815260408083206001600160a01b038716845290915281205490919083811015610ea85760405162461bcd60e51b815260206004820152602560248201527f45524332303a2064656372656173656420616c6c6f77616e63652062656c6f77604482015264207a65726f60d81b60648201526084016108e7565b610eb5828686840361130f565b506001949350505050565b6000546001600160a01b03163314610eea5760405162461bcd60e51b81526004016108e7906127b4565b80600d541415610f0d5760405163df82d43b60e01b815260040160405180910390fd5b600d80549082905560408051828152602081018490527f5fc7d51af28af560d05b75865f0c38dd86c53156b5fe8596df1445f5ab39eeb29101610be0565b6000336107e48185856114d3565b83421115610fa95760405162461bcd60e51b815260206004820152601d60248201527f4552433230566f7465733a207369676e6174757265206578706972656400000060448201526064016108e7565b604080517fe48329057bfd03d55e49b547132e39cffd9c1820ad7b9d4c5307691425d15adf60208201526001600160a01b0388169181019190915260608101869052608081018590526000906110239061101b9060a00160405160208183030381529060405280519060200120611ae6565b858585611b34565b905061102e81611b5c565b861461107c5760405162461bcd60e51b815260206004820152601960248201527f4552433230566f7465733a20696e76616c6964206e6f6e63650000000000000060448201526064016108e7565b61108681886119b3565b50505050505050565b834211156110df5760405162461bcd60e51b815260206004820152601d60248201527f45524332305065726d69743a206578706972656420646561646c696e6500000060448201526064016108e7565b60007f000000000000000000000000000000000000000000000000000000000000000088888861110e8c611b5c565b6040805160208101969096526001600160a01b0394851690860152929091166060840152608083015260a082015260c0810186905260e001604051602081830303815290604052805190602001209050600061116982611ae6565b9050600061117982878787611b34565b9050896001600160a01b0316816001600160a01b0316146111dc5760405162461bcd60e51b815260206004820152601e60248201527f45524332305065726d69743a20696e76616c6964207369676e6174757265000060448201526064016108e7565b6111e78a8a8a61130f565b50505050505050505050565b60408051808201909152600080825260208201526001600160a01b0383166000908152600960205260409020805463ffffffff841690811061123757611237612800565b60009182526020918290206040805180820190915291015463ffffffff8116825264010000000090046001600160e01b0316918101919091529392505050565b6000546001600160a01b031633146112a15760405162461bcd60e51b81526004016108e7906127b4565b6001600160a01b0381166113065760405162461bcd60e51b815260206004820152602660248201527f4f776e61626c653a206e6577206f776e657220697320746865207a65726f206160448201526564647265737360d01b60648201526084016108e7565b610b2f81611a96565b6001600160a01b0383166113715760405162461bcd60e51b8152602060048201526024808201527f45524332303a20617070726f76652066726f6d20746865207a65726f206164646044820152637265737360e01b60648201526084016108e7565b6001600160a01b0382166113d25760405162461bcd60e51b815260206004820152602260248201527f45524332303a20617070726f766520746f20746865207a65726f206164647265604482015261737360f01b60648201526084016108e7565b6001600160a01b0383811660008181526003602090815260408083209487168084529482529182902085905590518481527f8c5be1e5ebec7d5bd14f71427d1e84f3dd0314c0f7b2291e5b200ac8c7c3b925910160405180910390a3505050565b61143d8282611b84565b5050565b6001600160a01b0383811660009081526003602090815260408083209386168352929052205460001981146114cd57818110156114c05760405162461bcd60e51b815260206004820152601d60248201527f45524332303a20696e73756666696369656e7420616c6c6f77616e636500000060448201526064016108e7565b6114cd848484840361130f565b50505050565b6001600160a01b0383166115375760405162461bcd60e51b815260206004820152602560248201527f45524332303a207472616e736665722066726f6d20746865207a65726f206164604482015264647265737360d81b60648201526084016108e7565b6001600160a01b0382166115995760405162461bcd60e51b815260206004820152602360248201527f45524332303a207472616e7366657220746f20746865207a65726f206164647260448201526265737360e81b60648201526084016108e7565b6001600160a01b038316600090815260026020526040902054818110156116115760405162461bcd60e51b815260206004820152602660248201527f45524332303a207472616e7366657220616d6f756e7420657863656564732062604482015265616c616e636560d01b60648201526084016108e7565b6001600160a01b0380851660009081526002602052604080822085850390559185168152908120805484929061164890849061279c565b92505081905550826001600160a01b0316846001600160a01b03167fddf252ad1be2c89b69c2b068fc378daa952ba7f163c4a11628f55a4df523b3ef8460405161169491815260200190565b60405180910390a36114cd848484611c0e565b6000306001600160a01b037f00000000000000000000000000000000000000000000000000000000000000001614801561170057507f000000000000000000000000000000000000000000000000000000000000000046145b1561172a57507f000000000000000000000000000000000000000000000000000000000000000090565b50604080517f00000000000000000000000000000000000000000000000000000000000000006020808301919091527f0000000000000000000000000000000000000000000000000000000000000000828401527f000000000000000000000000000000000000000000000000000000000000000060608301524660808301523060a0808401919091528351808403909101815260c0909201909252805191012090565b8047101561181e5760405162461bcd60e51b815260206004820152601d60248201527f416464726573733a20696e73756666696369656e742062616c616e636500000060448201526064016108e7565b6000826001600160a01b03168260405160006040518083038185875af1925050503d806000811461186b576040519150601f19603f3d011682016040523d82523d6000602084013e611870565b606091505b50509050806118e75760405162461bcd60e51b815260206004820152603a60248201527f416464726573733a20756e61626c6520746f2073656e642076616c75652c207260448201527f6563697069656e74206d6179206861766520726576657274656400000000000060648201526084016108e7565b505050565b8154600090815b818110156119505760006119078284611c19565b90508486828154811061191c5761191c612800565b60009182526020909120015463ffffffff16111561193c5780925061194a565b61194781600161279c565b91505b506118f3565b811561199457846119626001846127e9565b8154811061197257611972612800565b60009182526020909120015464010000000090046001600160e01b0316611997565b60005b6001600160e01b031695945050505050565b61143d8282611c34565b6001600160a01b03828116600081815260086020818152604080842080546002845282862054949093528787166001600160a01b03198416811790915590519190951694919391928592917f3134e8a2e6d97e929a7e54011ea5485d7d196dd5f0ba4d4ef95803e8e3fc257f9190a46114cd828483611c4c565b600063ffffffff821115611a925760405162461bcd60e51b815260206004820152602660248201527f53616665436173743a2076616c756520646f65736e27742066697420696e203360448201526532206269747360d01b60648201526084016108e7565b5090565b600080546001600160a01b038381166001600160a01b0319831681178455604051919092169283917f8be0079c531659141344cd1fd0a4f28419497f9722a3daafe3b4186f6b6457e09190a35050565b60006107ea611af36116a7565b8360405161190160f01b6020820152602281018390526042810182905260009060620160405160208183030381529060405280519060200120905092915050565b6000806000611b4587878787611d89565b91509150611b5281611e76565b5095945050505050565b6001600160a01b03811660009081526007602052604090208054600181018255905b50919050565b611b8e8282612031565b6004546001600160e01b031015611c005760405162461bcd60e51b815260206004820152603060248201527f4552433230566f7465733a20746f74616c20737570706c79207269736b73206f60448201526f766572666c6f77696e6720766f74657360801b60648201526084016108e7565b6114cd600a61211883612124565b6118e783838361229d565b6000611c286002848418612831565b6108879084841661279c565b611c3e82826122cf565b6114cd600a61242483612124565b816001600160a01b0316836001600160a01b031614158015611c6e5750600081115b156118e7576001600160a01b03831615611cfc576001600160a01b03831660009081526009602052604081208190611ca99061242485612124565b91509150846001600160a01b03167fdec2bacdd2f05b59de34da9b523dff8be42e5e38e818c82fdb0bae774387a7248383604051611cf1929190918252602082015260400190565b60405180910390a250505b6001600160a01b038216156118e7576001600160a01b03821660009081526009602052604081208190611d329061211885612124565b91509150836001600160a01b03167fdec2bacdd2f05b59de34da9b523dff8be42e5e38e818c82fdb0bae774387a7248383604051611d7a929190918252602082015260400190565b60405180910390a25050505050565b6000807f7fffffffffffffffffffffffffffffff5d576e7357a4501ddfe92f46681b20a0831115611dc05750600090506003611e6d565b8460ff16601b14158015611dd857508460ff16601c14155b15611de95750600090506004611e6d565b6040805160008082526020820180845289905260ff881692820192909252606081018690526080810185905260019060a0016020604051602081039080840390855afa158015611e3d573d6000803e3d6000fd5b5050604051601f1901519150506001600160a01b038116611e6657600060019250925050611e6d565b9150600090505b94509492505050565b6000816004811115611e8a57611e8a6125c5565b1415611e935750565b6001816004811115611ea757611ea76125c5565b1415611ef55760405162461bcd60e51b815260206004820152601860248201527f45434453413a20696e76616c6964207369676e6174757265000000000000000060448201526064016108e7565b6002816004811115611f0957611f096125c5565b1415611f575760405162461bcd60e51b815260206004820152601f60248201527f45434453413a20696e76616c6964207369676e6174757265206c656e6774680060448201526064016108e7565b6003816004811115611f6b57611f6b6125c5565b1415611fc45760405162461bcd60e51b815260206004820152602260248201527f45434453413a20696e76616c6964207369676e6174757265202773272076616c604482015261756560f01b60648201526084016108e7565b6004816004811115611fd857611fd86125c5565b1415610b2f5760405162461bcd60e51b815260206004820152602260248201527f45434453413a20696e76616c6964207369676e6174757265202776272076616c604482015261756560f01b60648201526084016108e7565b6001600160a01b0382166120875760405162461bcd60e51b815260206004820152601f60248201527f45524332303a206d696e7420746f20746865207a65726f20616464726573730060448201526064016108e7565b8060046000828254612099919061279c565b90915550506001600160a01b038216600090815260026020526040812080548392906120c690849061279c565b90915550506040518181526001600160a01b038316906000907fddf252ad1be2c89b69c2b068fc378daa952ba7f163c4a11628f55a4df523b3ef9060200160405180910390a361143d60008383611c0e565b6000610887828461279c565b82546000908190801561216f578561213d6001836127e9565b8154811061214d5761214d612800565b60009182526020909120015464010000000090046001600160e01b0316612172565b60005b6001600160e01b0316925061218b83858763ffffffff16565b91506000811180156121c9575043866121a56001846127e9565b815481106121b5576121b5612800565b60009182526020909120015463ffffffff16145b15612229576121d782612430565b866121e36001846127e9565b815481106121f3576121f3612800565b9060005260206000200160000160046101000a8154816001600160e01b0302191690836001600160e01b03160217905550612294565b85604051806040016040528061223e43611a2d565b63ffffffff16815260200161225285612430565b6001600160e01b0390811690915282546001810184556000938452602093849020835194909301519091166401000000000263ffffffff909316929092179101555b50935093915050565b6001600160a01b038381166000908152600860205260408082205485841683529120546118e792918216911683611c4c565b6001600160a01b03821661232f5760405162461bcd60e51b815260206004820152602160248201527f45524332303a206275726e2066726f6d20746865207a65726f206164647265736044820152607360f81b60648201526084016108e7565b6001600160a01b038216600090815260026020526040902054818110156123a35760405162461bcd60e51b815260206004820152602260248201527f45524332303a206275726e20616d6f756e7420657863656564732062616c616e604482015261636560f01b60648201526084016108e7565b6001600160a01b03831660009081526002602052604081208383039055600480548492906123d29084906127e9565b90915550506040518281526000906001600160a01b038516907fddf252ad1be2c89b69c2b068fc378daa952ba7f163c4a11628f55a4df523b3ef9060200160405180910390a36118e783600084611c0e565b600061088782846127e9565b60006001600160e01b03821115611a925760405162461bcd60e51b815260206004820152602760248201527f53616665436173743a2076616c756520646f65736e27742066697420696e20326044820152663234206269747360c81b60648201526084016108e7565b600060208083528351808285015260005b818110156124c6578581018301518582016040015282016124aa565b818111156124d8576000604083870101525b50601f01601f1916929092016040019392505050565b80356001600160a01b038116811461250557600080fd5b919050565b6000806040838503121561251d57600080fd5b612526836124ee565b946020939093013593505050565b60008060006060848603121561254957600080fd5b612552846124ee565b9250612560602085016124ee565b9150604084013590509250925092565b60006020828403121561258257600080fd5b610887826124ee565b60006020828403121561259d57600080fd5b5035919050565b6000602082840312156125b657600080fd5b81356003811061088757600080fd5b634e487b7160e01b600052602160045260246000fd5b600381106125f957634e487b7160e01b600052602160045260246000fd5b9052565b602081016107ea82846125db565b803560ff8116811461250557600080fd5b60008060008060008060c0878903121561263557600080fd5b61263e876124ee565b9550602087013594506040870135935061265a6060880161260b565b92506080870135915060a087013590509295509295509295565b600080600080600080600060e0888a03121561268f57600080fd5b612698886124ee565b96506126a6602089016124ee565b955060408801359450606088013593506126c26080890161260b565b925060a0880135915060c0880135905092959891949750929550565b600080604083850312156126f157600080fd5b6126fa836124ee565b9150612708602084016124ee565b90509250929050565b6000806040838503121561272457600080fd5b61272d836124ee565b9150602083013563ffffffff8116811461274657600080fd5b809150509250929050565b600181811c9082168061276557607f821691505b60208210811415611b7e57634e487b7160e01b600052602260045260246000fd5b634e487b7160e01b600052601160045260246000fd5b600082198211156127af576127af612786565b500190565b6020808252818101527f4f776e61626c653a2063616c6c6572206973206e6f7420746865206f776e6572604082015260600190565b6000828210156127fb576127fb612786565b500390565b634e487b7160e01b600052603260045260246000fd5b6040810161282482856125db565b61088760208301846125db565b60008261284e57634e487b7160e01b600052601260045260246000fd5b50049056fea2646970667358221220b1d00fffc4944c9079a83e05445a1c1252eca2f171e8352cbe83030c25b5666c64736f6c63430008090033",
  "devdoc": {
    "author": "Alpha Audits https://alphaaudits.com https://twitter.com/alphaaudits https://alphaaudits.medium.com",
    "kind": "dev",
    "methods": {
      "DOMAIN_SEPARATOR()": {
        "details": "See {IERC20Permit-DOMAIN_SEPARATOR}."
      },
      "allowance(address,address)": {
        "details": "See {IERC20-allowance}."
      },
      "approve(address,uint256)": {
        "details": "See {IERC20-approve}. NOTE: If `amount` is the maximum `uint256`, the allowance is not updated on `transferFrom`. This is semantically equivalent to an infinite approval. Requirements: - `spender` cannot be the zero address."
      },
      "balanceOf(address)": {
        "details": "See {IERC20-balanceOf}."
      },
      "checkpoints(address,uint32)": {
        "details": "Get the `pos`-th checkpoint for `account`."
      },
      "decimals()": {
        "details": "Returns the number of decimals used to get its user representation. For example, if `decimals` equals `2`, a balance of `505` tokens should be displayed to a user as `5.05` (`505 / 10 ** 2`). Tokens usually opt for a value of 18, imitating the relationship between Ether and Wei. This is the value {ERC20} uses, unless this function is overridden; NOTE: This information is only used for _display_ purposes: it in no way affects any of the arithmetic of the contract, including {IERC20-balanceOf} and {IERC20-transfer}."
      },
      "decreaseAllowance(address,uint256)": {
        "details": "Atomically decreases the allowance granted to `spender` by the caller. This is an alternative to {approve} that can be used as a mitigation for problems described in {IERC20-approve}. Emits an {Approval} event indicating the updated allowance. Requirements: - `spender` cannot be the zero address. - `spender` must have allowance for the caller of at least `subtractedValue`."
      },
      "delegate(address)": {
        "details": "Delegate votes from the sender to `delegatee`."
      },
      "delegateBySig(address,uint256,uint256,uint8,bytes32,bytes32)": {
        "details": "Delegates votes from signer to `delegatee`"
      },
      "delegates(address)": {
        "details": "Get the address `account` is currently delegating to."
      },
      "getPastTotalSupply(uint256)": {
        "details": "Retrieve the `totalSupply` at the end of `blockNumber`. Note, this value is the sum of all balances. It is but NOT the sum of all the delegated votes! Requirements: - `blockNumber` must have been already mined"
      },
      "getPastVotes(address,uint256)": {
        "details": "Retrieve the number of votes for `account` at the end of `blockNumber`. Requirements: - `blockNumber` must have been already mined"
      },
      "getVotes(address)": {
        "details": "Gets the current votes balance for `account`"
      },
      "increaseAllowance(address,uint256)": {
        "details": "Atomically increases the allowance granted to `spender` by the caller. This is an alternative to {approve} that can be used as a mitigation for problems described in {IERC20-approve}. Emits an {Approval} event indicating the updated allowance. Requirements: - `spender` cannot be the zero address."
      },
      "name()": {
        "details": "Returns the name of the token."
      },
      "nonces(address)": {
        "details": "See {IERC20Permit-nonces}."
      },
      "numCheckpoints(address)": {
        "details": "Get number of checkpoints for `account`."
      },
      "owner()": {
        "details": "Returns the address of the current owner."
      },
      "permit(address,address,uint256,uint256,uint8,bytes32,bytes32)": {
        "details": "See {IERC20Permit-permit}."
      },
      "refund()": {
        "details": "We transfer ether in this same transaction, taking extra care to protect against reentrancy and to follow the check-effects-interaction pattern."
      },
      "refundsOpen()": {
        "details": "This function is public for simple inspection by dApps."
      },
      "renounceOwnership()": {
        "details": "Leaves the contract without owner. It will not be possible to call `onlyOwner` functions anymore. Can only be called by the current owner. NOTE: Renouncing ownership will leave the contract without an owner, thereby removing any functionality that is only available to the owner."
      },
      "symbol()": {
        "details": "Returns the symbol of the token, usually a shorter version of the name."
      },
      "totalSupply()": {
        "details": "See {IERC20-totalSupply}."
      },
      "transfer(address,uint256)": {
        "details": "See {IERC20-transfer}. Requirements: - `to` cannot be the zero address. - the caller must have a balance of at least `amount`."
      },
      "transferFrom(address,address,uint256)": {
        "details": "See {IERC20-transferFrom}. Emits an {Approval} event indicating the updated allowance. This is not required by the EIP. See the note at the beginning of {ERC20}. NOTE: Does not update the allowance if the current allowance is the maximum `uint256`. Requirements: - `from` and `to` cannot be the zero address. - `from` must have a balance of at least `amount`. - the caller must have allowance for ``from``'s tokens of at least `amount`."
      },
      "transferOwnership(address)": {
        "details": "Transfers ownership of the contract to a new account (`newOwner`). Can only be called by the current owner."
      }
    },
    "stateVariables": {
      "MAX_ALLOWABLE_SUPPLY": {
        "details": "Necessary for maintaining ERC20Votes compatibility"
      },
      "maxSupply": {
        "details": "Mutable."
      },
      "raiseEndTimestamp": {
        "details": "Mutable."
      }
    },
    "version": 1
  },
  "userdoc": {
    "kind": "user",
    "methods": {
      "MAX_ALLOWABLE_SUPPLY()": {
        "notice": "An upper limit on maxSupply."
      },
      "maxSupply()": {
        "notice": "The maximum number of tokens available to mint."
      },
      "mint()": {
        "notice": "Use this function to obtain DAO tokens/rights at a rate of 1:1 with ether."
      },
      "postSuccessTransfer(address,uint256)": {
        "notice": "Following a successful raise, we use this function to transfer funds to seller/broker's account(s)."
      },
      "raiseEndTimestamp()": {
        "notice": "The deadline upon which refunds will open automatically if the raise has not succeeded."
      },
      "raiseState()": {
        "notice": "Current state. See RaiseState enum for details"
      },
      "refund()": {
        "notice": "Burns and returns to the user an ether amount equal to their token balance."
      }
    },
    "notice": "A readable ERC20 token contract with mint, voting, and refund features. Minting is public at a rate of 1:1 with ether. A simple 1:1 refund mechanism is in place with the following rules: Refunds are open upon a failed raise, or Raise is still open and the raise deadline has passed.",
    "version": 1
  },
  "storageLayout": {
    "storage": [
      {
        "astId": 389,
        "contract": "contracts/ChelseaDAOERC20.sol:ChelseaDAOERC20",
        "label": "_owner",
        "offset": 0,
        "slot": "0",
        "type": "t_address"
      },
      {
        "astId": 3412,
        "contract": "contracts/ChelseaDAOERC20.sol:ChelseaDAOERC20",
        "label": "_status",
        "offset": 0,
        "slot": "1",
        "type": "t_uint256"
      },
      {
        "astId": 3457,
        "contract": "contracts/ChelseaDAOERC20.sol:ChelseaDAOERC20",
        "label": "_balances",
        "offset": 0,
        "slot": "2",
        "type": "t_mapping(t_address,t_uint256)"
      },
      {
        "astId": 3463,
        "contract": "contracts/ChelseaDAOERC20.sol:ChelseaDAOERC20",
        "label": "_allowances",
        "offset": 0,
        "slot": "3",
        "type": "t_mapping(t_address,t_mapping(t_address,t_uint256))"
      },
      {
        "astId": 3465,
        "contract": "contracts/ChelseaDAOERC20.sol:ChelseaDAOERC20",
        "label": "_totalSupply",
        "offset": 0,
        "slot": "4",
        "type": "t_uint256"
      },
      {
        "astId": 3467,
        "contract": "contracts/ChelseaDAOERC20.sol:ChelseaDAOERC20",
        "label": "_name",
        "offset": 0,
        "slot": "5",
        "type": "t_string_storage"
      },
      {
        "astId": 3469,
        "contract": "contracts/ChelseaDAOERC20.sol:ChelseaDAOERC20",
        "label": "_symbol",
        "offset": 0,
        "slot": "6",
        "type": "t_string_storage"
      },
      {
        "astId": 4792,
        "contract": "contracts/ChelseaDAOERC20.sol:ChelseaDAOERC20",
        "label": "_nonces",
        "offset": 0,
        "slot": "7",
        "type": "t_mapping(t_address,t_struct(Counter)5521_storage)"
      },
      {
        "astId": 4133,
        "contract": "contracts/ChelseaDAOERC20.sol:ChelseaDAOERC20",
        "label": "_delegates",
        "offset": 0,
        "slot": "8",
        "type": "t_mapping(t_address,t_address)"
      },
      {
        "astId": 4139,
        "contract": "contracts/ChelseaDAOERC20.sol:ChelseaDAOERC20",
        "label": "_checkpoints",
        "offset": 0,
        "slot": "9",
        "type": "t_mapping(t_address,t_array(t_struct(Checkpoint)4124_storage)dyn_storage)"
      },
      {
        "astId": 4143,
        "contract": "contracts/ChelseaDAOERC20.sol:ChelseaDAOERC20",
        "label": "_totalSupplyCheckpoints",
        "offset": 0,
        "slot": "10",
        "type": "t_array(t_struct(Checkpoint)4124_storage)dyn_storage"
      },
      {
        "astId": 7403,
        "contract": "contracts/ChelseaDAOERC20.sol:ChelseaDAOERC20",
        "label": "maxSupply",
        "offset": 0,
        "slot": "11",
        "type": "t_uint256"
      },
      {
        "astId": 7409,
        "contract": "contracts/ChelseaDAOERC20.sol:ChelseaDAOERC20",
        "label": "raiseState",
        "offset": 0,
        "slot": "12",
        "type": "t_enum(RaiseState)7367"
      },
      {
        "astId": 7416,
        "contract": "contracts/ChelseaDAOERC20.sol:ChelseaDAOERC20",
        "label": "raiseEndTimestamp",
        "offset": 0,
        "slot": "13",
        "type": "t_uint256"
      }
    ],
    "types": {
      "t_address": {
        "encoding": "inplace",
        "label": "address",
        "numberOfBytes": "20"
      },
      "t_array(t_struct(Checkpoint)4124_storage)dyn_storage": {
        "base": "t_struct(Checkpoint)4124_storage",
        "encoding": "dynamic_array",
        "label": "struct ERC20Votes.Checkpoint[]",
        "numberOfBytes": "32"
      },
      "t_enum(RaiseState)7367": {
        "encoding": "inplace",
        "label": "enum RaiseState",
        "numberOfBytes": "1"
      },
      "t_mapping(t_address,t_address)": {
        "encoding": "mapping",
        "key": "t_address",
        "label": "mapping(address => address)",
        "numberOfBytes": "32",
        "value": "t_address"
      },
      "t_mapping(t_address,t_array(t_struct(Checkpoint)4124_storage)dyn_storage)": {
        "encoding": "mapping",
        "key": "t_address",
        "label": "mapping(address => struct ERC20Votes.Checkpoint[])",
        "numberOfBytes": "32",
        "value": "t_array(t_struct(Checkpoint)4124_storage)dyn_storage"
      },
      "t_mapping(t_address,t_mapping(t_address,t_uint256))": {
        "encoding": "mapping",
        "key": "t_address",
        "label": "mapping(address => mapping(address => uint256))",
        "numberOfBytes": "32",
        "value": "t_mapping(t_address,t_uint256)"
      },
      "t_mapping(t_address,t_struct(Counter)5521_storage)": {
        "encoding": "mapping",
        "key": "t_address",
        "label": "mapping(address => struct Counters.Counter)",
        "numberOfBytes": "32",
        "value": "t_struct(Counter)5521_storage"
      },
      "t_mapping(t_address,t_uint256)": {
        "encoding": "mapping",
        "key": "t_address",
        "label": "mapping(address => uint256)",
        "numberOfBytes": "32",
        "value": "t_uint256"
      },
      "t_string_storage": {
        "encoding": "bytes",
        "label": "string",
        "numberOfBytes": "32"
      },
      "t_struct(Checkpoint)4124_storage": {
        "encoding": "inplace",
        "label": "struct ERC20Votes.Checkpoint",
        "members": [
          {
            "astId": 4121,
            "contract": "contracts/ChelseaDAOERC20.sol:ChelseaDAOERC20",
            "label": "fromBlock",
            "offset": 0,
            "slot": "0",
            "type": "t_uint32"
          },
          {
            "astId": 4123,
            "contract": "contracts/ChelseaDAOERC20.sol:ChelseaDAOERC20",
            "label": "votes",
            "offset": 4,
            "slot": "0",
            "type": "t_uint224"
          }
        ],
        "numberOfBytes": "32"
      },
      "t_struct(Counter)5521_storage": {
        "encoding": "inplace",
        "label": "struct Counters.Counter",
        "members": [
          {
            "astId": 5520,
            "contract": "contracts/ChelseaDAOERC20.sol:ChelseaDAOERC20",
            "label": "_value",
            "offset": 0,
            "slot": "0",
            "type": "t_uint256"
          }
        ],
        "numberOfBytes": "32"
      },
      "t_uint224": {
        "encoding": "inplace",
        "label": "uint224",
        "numberOfBytes": "28"
      },
      "t_uint256": {
        "encoding": "inplace",
        "label": "uint256",
        "numberOfBytes": "32"
      },
      "t_uint32": {
        "encoding": "inplace",
        "label": "uint32",
        "numberOfBytes": "4"
      }
    }
  }
}