{
  "address": "0x55Bd9616b5b8233f92358B35cB2170EfEeDAa1Df",
  "abi": [
    {
      "inputs": [],
      "stateMutability": "nonpayable",
      "type": "constructor"
    },
    {
      "inputs": [],
      "name": "PreviouslyInitialized",
      "type": "error"
    },
    {
      "anonymous": false,
      "inputs": [
        {
          "indexed": true,
          "internalType": "bytes32",
          "name": "id",
          "type": "bytes32"
        },
        {
          "indexed": true,
          "internalType": "uint256",
          "name": "index",
          "type": "uint256"
        },
        {
          "indexed": false,
          "internalType": "address",
          "name": "target",
          "type": "address"
        },
        {
          "indexed": false,
          "internalType": "uint256",
          "name": "value",
          "type": "uint256"
        },
        {
          "indexed": false,
          "internalType": "bytes",
          "name": "data",
          "type": "bytes"
        }
      ],
      "name": "CallExecuted",
      "type": "event"
    },
    {
      "anonymous": false,
      "inputs": [
        {
          "indexed": true,
          "internalType": "bytes32",
          "name": "id",
          "type": "bytes32"
        },
        {
          "indexed": true,
          "internalType": "uint256",
          "name": "index",
          "type": "uint256"
        },
        {
          "indexed": false,
          "internalType": "address",
          "name": "target",
          "type": "address"
        },
        {
          "indexed": false,
          "internalType": "uint256",
          "name": "value",
          "type": "uint256"
        },
        {
          "indexed": false,
          "internalType": "bytes",
          "name": "data",
          "type": "bytes"
        },
        {
          "indexed": false,
          "internalType": "bytes32",
          "name": "predecessor",
          "type": "bytes32"
        },
        {
          "indexed": false,
          "internalType": "uint256",
          "name": "delay",
          "type": "uint256"
        }
      ],
      "name": "CallScheduled",
      "type": "event"
    },
    {
      "anonymous": false,
      "inputs": [
        {
          "indexed": true,
          "internalType": "bytes32",
          "name": "id",
          "type": "bytes32"
        }
      ],
      "name": "Cancelled",
      "type": "event"
    },
    {
      "anonymous": false,
      "inputs": [
        {
          "indexed": false,
          "internalType": "uint256",
          "name": "oldDuration",
          "type": "uint256"
        },
        {
          "indexed": false,
          "internalType": "uint256",
          "name": "newDuration",
          "type": "uint256"
        }
      ],
      "name": "MinDelayChange",
      "type": "event"
    },
    {
      "anonymous": false,
      "inputs": [
        {
          "indexed": true,
          "internalType": "bytes32",
          "name": "role",
          "type": "bytes32"
        },
        {
          "indexed": true,
          "internalType": "bytes32",
          "name": "previousAdminRole",
          "type": "bytes32"
        },
        {
          "indexed": true,
          "internalType": "bytes32",
          "name": "newAdminRole",
          "type": "bytes32"
        }
      ],
      "name": "RoleAdminChanged",
      "type": "event"
    },
    {
      "anonymous": false,
      "inputs": [
        {
          "indexed": true,
          "internalType": "bytes32",
          "name": "role",
          "type": "bytes32"
        },
        {
          "indexed": true,
          "internalType": "address",
          "name": "account",
          "type": "address"
        },
        {
          "indexed": true,
          "internalType": "address",
          "name": "sender",
          "type": "address"
        }
      ],
      "name": "RoleGranted",
      "type": "event"
    },
    {
      "anonymous": false,
      "inputs": [
        {
          "indexed": true,
          "internalType": "bytes32",
          "name": "role",
          "type": "bytes32"
        },
        {
          "indexed": true,
          "internalType": "address",
          "name": "account",
          "type": "address"
        },
        {
          "indexed": true,
          "internalType": "address",
          "name": "sender",
          "type": "address"
        }
      ],
      "name": "RoleRevoked",
      "type": "event"
    },
    {
      "inputs": [],
      "name": "DEFAULT_ADMIN_ROLE",
      "outputs": [
        {
          "internalType": "bytes32",
          "name": "",
          "type": "bytes32"
        }
      ],
      "stateMutability": "view",
      "type": "function"
    },
    {
      "inputs": [],
      "name": "EXECUTOR_ROLE",
      "outputs": [
        {
          "internalType": "bytes32",
          "name": "",
          "type": "bytes32"
        }
      ],
      "stateMutability": "view",
      "type": "function"
    },
    {
      "inputs": [],
      "name": "PROPOSER_ROLE",
      "outputs": [
        {
          "internalType": "bytes32",
          "name": "",
          "type": "bytes32"
        }
      ],
      "stateMutability": "view",
      "type": "function"
    },
    {
      "inputs": [],
      "name": "TIMELOCK_ADMIN_ROLE",
      "outputs": [
        {
          "internalType": "bytes32",
          "name": "",
          "type": "bytes32"
        }
      ],
      "stateMutability": "view",
      "type": "function"
    },
    {
      "inputs": [
        {
          "internalType": "bytes32",
          "name": "id",
          "type": "bytes32"
        }
      ],
      "name": "cancel",
      "outputs": [],
      "stateMutability": "nonpayable",
      "type": "function"
    },
    {
      "inputs": [],
      "name": "chelseaDAO",
      "outputs": [
        {
          "internalType": "address",
          "name": "",
          "type": "address"
        }
      ],
      "stateMutability": "view",
      "type": "function"
    },
    {
      "inputs": [
        {
          "internalType": "address",
          "name": "target",
          "type": "address"
        },
        {
          "internalType": "uint256",
          "name": "value",
          "type": "uint256"
        },
        {
          "internalType": "bytes",
          "name": "data",
          "type": "bytes"
        },
        {
          "internalType": "bytes32",
          "name": "predecessor",
          "type": "bytes32"
        },
        {
          "internalType": "bytes32",
          "name": "salt",
          "type": "bytes32"
        }
      ],
      "name": "execute",
      "outputs": [],
      "stateMutability": "payable",
      "type": "function"
    },
    {
      "inputs": [
        {
          "internalType": "address[]",
          "name": "targets",
          "type": "address[]"
        },
        {
          "internalType": "uint256[]",
          "name": "values",
          "type": "uint256[]"
        },
        {
          "internalType": "bytes[]",
          "name": "datas",
          "type": "bytes[]"
        },
        {
          "internalType": "bytes32",
          "name": "predecessor",
          "type": "bytes32"
        },
        {
          "internalType": "bytes32",
          "name": "salt",
          "type": "bytes32"
        }
      ],
      "name": "executeBatch",
      "outputs": [],
      "stateMutability": "payable",
      "type": "function"
    },
    {
      "inputs": [],
      "name": "getMinDelay",
      "outputs": [
        {
          "internalType": "uint256",
          "name": "duration",
          "type": "uint256"
        }
      ],
      "stateMutability": "view",
      "type": "function"
    },
    {
      "inputs": [
        {
          "internalType": "bytes32",
          "name": "role",
          "type": "bytes32"
        }
      ],
      "name": "getRoleAdmin",
      "outputs": [
        {
          "internalType": "bytes32",
          "name": "",
          "type": "bytes32"
        }
      ],
      "stateMutability": "view",
      "type": "function"
    },
    {
      "inputs": [
        {
          "internalType": "bytes32",
          "name": "id",
          "type": "bytes32"
        }
      ],
      "name": "getTimestamp",
      "outputs": [
        {
          "internalType": "uint256",
          "name": "timestamp",
          "type": "uint256"
        }
      ],
      "stateMutability": "view",
      "type": "function"
    },
    {
      "inputs": [
        {
          "internalType": "bytes32",
          "name": "role",
          "type": "bytes32"
        },
        {
          "internalType": "address",
          "name": "account",
          "type": "address"
        }
      ],
      "name": "grantRole",
      "outputs": [],
      "stateMutability": "nonpayable",
      "type": "function"
    },
    {
      "inputs": [
        {
          "internalType": "bytes32",
          "name": "role",
          "type": "bytes32"
        },
        {
          "internalType": "address",
          "name": "account",
          "type": "address"
        }
      ],
      "name": "hasRole",
      "outputs": [
        {
          "internalType": "bool",
          "name": "",
          "type": "bool"
        }
      ],
      "stateMutability": "view",
      "type": "function"
    },
    {
      "inputs": [
        {
          "internalType": "address",
          "name": "target",
          "type": "address"
        },
        {
          "internalType": "uint256",
          "name": "value",
          "type": "uint256"
        },
        {
          "internalType": "bytes",
          "name": "data",
          "type": "bytes"
        },
        {
          "internalType": "bytes32",
          "name": "predecessor",
          "type": "bytes32"
        },
        {
          "internalType": "bytes32",
          "name": "salt",
          "type": "bytes32"
        }
      ],
      "name": "hashOperation",
      "outputs": [
        {
          "internalType": "bytes32",
          "name": "hash",
          "type": "bytes32"
        }
      ],
      "stateMutability": "pure",
      "type": "function"
    },
    {
      "inputs": [
        {
          "internalType": "address[]",
          "name": "targets",
          "type": "address[]"
        },
        {
          "internalType": "uint256[]",
          "name": "values",
          "type": "uint256[]"
        },
        {
          "internalType": "bytes[]",
          "name": "datas",
          "type": "bytes[]"
        },
        {
          "internalType": "bytes32",
          "name": "predecessor",
          "type": "bytes32"
        },
        {
          "internalType": "bytes32",
          "name": "salt",
          "type": "bytes32"
        }
      ],
      "name": "hashOperationBatch",
      "outputs": [
        {
          "internalType": "bytes32",
          "name": "hash",
          "type": "bytes32"
        }
      ],
      "stateMutability": "pure",
      "type": "function"
    },
    {
      "inputs": [
        {
          "internalType": "address",
          "name": "chelseaDAO_",
          "type": "address"
        }
      ],
      "name": "initialize",
      "outputs": [],
      "stateMutability": "nonpayable",
      "type": "function"
    },
    {
      "inputs": [
        {
          "internalType": "bytes32",
          "name": "id",
          "type": "bytes32"
        }
      ],
      "name": "isOperation",
      "outputs": [
        {
          "internalType": "bool",
          "name": "pending",
          "type": "bool"
        }
      ],
      "stateMutability": "view",
      "type": "function"
    },
    {
      "inputs": [
        {
          "internalType": "bytes32",
          "name": "id",
          "type": "bytes32"
        }
      ],
      "name": "isOperationDone",
      "outputs": [
        {
          "internalType": "bool",
          "name": "done",
          "type": "bool"
        }
      ],
      "stateMutability": "view",
      "type": "function"
    },
    {
      "inputs": [
        {
          "internalType": "bytes32",
          "name": "id",
          "type": "bytes32"
        }
      ],
      "name": "isOperationPending",
      "outputs": [
        {
          "internalType": "bool",
          "name": "pending",
          "type": "bool"
        }
      ],
      "stateMutability": "view",
      "type": "function"
    },
    {
      "inputs": [
        {
          "internalType": "bytes32",
          "name": "id",
          "type": "bytes32"
        }
      ],
      "name": "isOperationReady",
      "outputs": [
        {
          "internalType": "bool",
          "name": "ready",
          "type": "bool"
        }
      ],
      "stateMutability": "view",
      "type": "function"
    },
    {
      "inputs": [
        {
          "internalType": "bytes32",
          "name": "role",
          "type": "bytes32"
        },
        {
          "internalType": "address",
          "name": "account",
          "type": "address"
        }
      ],
      "name": "renounceRole",
      "outputs": [],
      "stateMutability": "nonpayable",
      "type": "function"
    },
    {
      "inputs": [
        {
          "internalType": "bytes32",
          "name": "role",
          "type": "bytes32"
        },
        {
          "internalType": "address",
          "name": "account",
          "type": "address"
        }
      ],
      "name": "revokeRole",
      "outputs": [],
      "stateMutability": "nonpayable",
      "type": "function"
    },
    {
      "inputs": [
        {
          "internalType": "address",
          "name": "target",
          "type": "address"
        },
        {
          "internalType": "uint256",
          "name": "value",
          "type": "uint256"
        },
        {
          "internalType": "bytes",
          "name": "data",
          "type": "bytes"
        },
        {
          "internalType": "bytes32",
          "name": "predecessor",
          "type": "bytes32"
        },
        {
          "internalType": "bytes32",
          "name": "salt",
          "type": "bytes32"
        },
        {
          "internalType": "uint256",
          "name": "delay",
          "type": "uint256"
        }
      ],
      "name": "schedule",
      "outputs": [],
      "stateMutability": "nonpayable",
      "type": "function"
    },
    {
      "inputs": [
        {
          "internalType": "address[]",
          "name": "targets",
          "type": "address[]"
        },
        {
          "internalType": "uint256[]",
          "name": "values",
          "type": "uint256[]"
        },
        {
          "internalType": "bytes[]",
          "name": "datas",
          "type": "bytes[]"
        },
        {
          "internalType": "bytes32",
          "name": "predecessor",
          "type": "bytes32"
        },
        {
          "internalType": "bytes32",
          "name": "salt",
          "type": "bytes32"
        },
        {
          "internalType": "uint256",
          "name": "delay",
          "type": "uint256"
        }
      ],
      "name": "scheduleBatch",
      "outputs": [],
      "stateMutability": "nonpayable",
      "type": "function"
    },
    {
      "inputs": [
        {
          "internalType": "bytes4",
          "name": "interfaceId",
          "type": "bytes4"
        }
      ],
      "name": "supportsInterface",
      "outputs": [
        {
          "internalType": "bool",
          "name": "",
          "type": "bool"
        }
      ],
      "stateMutability": "view",
      "type": "function"
    },
    {
      "inputs": [
        {
          "internalType": "uint256",
          "name": "newDelay",
          "type": "uint256"
        }
      ],
      "name": "updateDelay",
      "outputs": [],
      "stateMutability": "nonpayable",
      "type": "function"
    },
    {
      "stateMutability": "payable",
      "type": "receive"
    }
  ],
  "transactionHash": "0x2b542d8843cf034b0fa9f52e3792eba383004c0e085c9a69a97e528c2b9efa3d",
  "args": [],
  "numDeployments": 1,
  "solcInputHash": "f451a07a1b9549c56153f105ba9a83fa",
  "bytecode": "0x6080604052600380546001600160a01b03191690553480156200002157600080fd5b50604080516000808252602082019081528183019092526203f480916200005860008051602062001da083398151915280620001d2565b6200008260008051602062001dc083398151915260008051602062001da0833981519152620001d2565b620000ac60008051602062001de083398151915260008051602062001da0833981519152620001d2565b620000c760008051602062001da0833981519152336200021d565b620000e260008051602062001da0833981519152306200021d565b60005b82518110156200013f576200012c60008051602062001dc0833981519152848381518110620001185762000118620002cd565b60200260200101516200021d60201b60201c565b6200013781620002e3565b9050620000e5565b5060005b815181101562000189576200017660008051602062001de0833981519152838381518110620001185762000118620002cd565b6200018181620002e3565b905062000143565b5060028390556040805160008152602081018590527f11c24f4ead16507c69ac467fbd5e4eed5fb5c699626d2cc6d66421df253886d5910160405180910390a15050506200030d565b600082815260208190526040808220600101805490849055905190918391839186917fbd79b86ffe0ab8e8776151514217cd7cacd52c909f66475c3af44e129f0b00ff9190a4505050565b6200022982826200022d565b5050565b6000828152602081815260408083206001600160a01b038516845290915290205460ff1662000229576000828152602081815260408083206001600160a01b03851684529091529020805460ff19166001179055620002893390565b6001600160a01b0316816001600160a01b0316837f2f8788117e7eff1d82e926ec794901d17c78024a50270940304540a733656f0d60405160405180910390a45050565b634e487b7160e01b600052603260045260246000fd5b60006000198214156200030657634e487b7160e01b600052601160045260246000fd5b5060010190565b611a83806200031d6000396000f3fe6080604052600436106101855760003560e01c806364d62353116100d1578063b1c5f4271161008a578063d45c443511610064578063d45c4435146104af578063d547741f146104dc578063e38335e5146104fc578063f27a0c921461050f57600080fd5b8063b1c5f4271461044f578063c4d252f51461046f578063c4d66de81461048f57600080fd5b806364d62353146103985780638065657f146103b85780638f2a0bb0146103d85780638f61f4f5146103f857806391d148541461041a578063a217fddf1461043a57600080fd5b8063248a9ca31161013e5780632f2ff15d116101185780632f2ff15d1461031857806331d507501461033857806336568abe14610358578063584b153e1461037857600080fd5b8063248a9ca31461027f57806329130b4f146102af5780632ab0f529146102e757600080fd5b806301d5062a1461019157806301ffc9a7146101b357806307bd0265146101e85780630d3cf6fc14610218578063134008d31461024c57806313bc9f201461025f57600080fd5b3661018c57005b600080fd5b34801561019d57600080fd5b506101b16101ac3660046112c7565b610524565b005b3480156101bf57600080fd5b506101d36101ce36600461133c565b6105a8565b60405190151581526020015b60405180910390f35b3480156101f457600080fd5b5061020a600080516020611a2e83398151915281565b6040519081526020016101df565b34801561022457600080fd5b5061020a7f5f58e3a2316349923ce3780f8d587db2d72378aed66a8261c916544fa6846ca581565b6101b161025a366004611366565b6105df565b34801561026b57600080fd5b506101d361027a3660046113d2565b610645565b34801561028b57600080fd5b5061020a61029a3660046113d2565b60009081526020819052604090206001015490565b3480156102bb57600080fd5b506003546102cf906001600160a01b031681565b6040516001600160a01b0390911681526020016101df565b3480156102f357600080fd5b506101d36103023660046113d2565b6000908152600160208190526040909120541490565b34801561032457600080fd5b506101b16103333660046113eb565b61066b565b34801561034457600080fd5b506101d36103533660046113d2565b610696565b34801561036457600080fd5b506101b16103733660046113eb565b6106af565b34801561038457600080fd5b506101d36103933660046113d2565b610732565b3480156103a457600080fd5b506101b16103b33660046113d2565b610748565b3480156103c457600080fd5b5061020a6103d3366004611366565b6107ec565b3480156103e457600080fd5b506101b16103f336600461145c565b61082b565b34801561040457600080fd5b5061020a600080516020611a0e83398151915281565b34801561042657600080fd5b506101d36104353660046113eb565b61096c565b34801561044657600080fd5b5061020a600081565b34801561045b57600080fd5b5061020a61046a36600461150e565b610995565b34801561047b57600080fd5b506101b161048a3660046113d2565b6109da565b34801561049b57600080fd5b506101b16104aa3660046115b7565b610a9e565b3480156104bb57600080fd5b5061020a6104ca3660046113d2565b60009081526001602052604090205490565b3480156104e857600080fd5b506101b16104f73660046113eb565b610b4e565b6101b161050a36600461150e565b610b74565b34801561051b57600080fd5b5060025461020a565b600080516020611a0e83398151915261053d8133610c97565b600061054d8989898989896107ec565b90506105598184610cfb565b6000817f4cf4410cc57040e44862ef0f45f3dd5a5e02db8eb8add648d4b0e236f1d07dca8b8b8b8b8b8a604051610595969594939291906115fb565b60405180910390a3505050505050505050565b60006001600160e01b03198216637965db0b60e01b14806105d957506301ffc9a760e01b6001600160e01b03198316145b92915050565b600080516020611a2e8339815191526105f981600061096c565b610607576106078133610c97565b60006106178888888888886107ec565b90506106238185610dea565b6106328160008a8a8a8a610e86565b61063b81610f9a565b5050505050505050565b6000818152600160205260408120546001811180156106645750428111155b9392505050565b6000828152602081905260409020600101546106878133610c97565b6106918383610fd3565b505050565b60008181526001602052604081205481905b1192915050565b6001600160a01b03811633146107245760405162461bcd60e51b815260206004820152602f60248201527f416363657373436f6e74726f6c3a2063616e206f6e6c792072656e6f756e636560448201526e103937b632b9903337b91039b2b63360891b60648201526084015b60405180910390fd5b61072e8282611057565b5050565b60008181526001602081905260408220546106a8565b3330146107ab5760405162461bcd60e51b815260206004820152602b60248201527f54696d656c6f636b436f6e74726f6c6c65723a2063616c6c6572206d7573742060448201526a62652074696d656c6f636b60a81b606482015260840161071b565b60025460408051918252602082018390527f11c24f4ead16507c69ac467fbd5e4eed5fb5c699626d2cc6d66421df253886d5910160405180910390a1600255565b6000868686868686604051602001610809969594939291906115fb565b6040516020818303038152906040528051906020012090509695505050505050565b600080516020611a0e8339815191526108448133610c97565b8887146108635760405162461bcd60e51b815260040161071b90611638565b8885146108825760405162461bcd60e51b815260040161071b90611638565b60006108948b8b8b8b8b8b8b8b610995565b90506108a08184610cfb565b60005b8a81101561095e5780827f4cf4410cc57040e44862ef0f45f3dd5a5e02db8eb8add648d4b0e236f1d07dca8e8e858181106108e0576108e061167b565b90506020020160208101906108f591906115b7565b8d8d868181106109075761090761167b565b905060200201358c8c878181106109205761092061167b565b90506020028101906109329190611691565b8c8b604051610946969594939291906115fb565b60405180910390a3610957816116ee565b90506108a3565b505050505050505050505050565b6000918252602082815260408084206001600160a01b0393909316845291905290205460ff1690565b600088888888888888886040516020016109b698979695949392919061179a565b60405160208183030381529060405280519060200120905098975050505050505050565b600080516020611a0e8339815191526109f38133610c97565b6109fc82610732565b610a625760405162461bcd60e51b815260206004820152603160248201527f54696d656c6f636b436f6e74726f6c6c65723a206f7065726174696f6e2063616044820152701b9b9bdd0818994818d85b98d95b1b1959607a1b606482015260840161071b565b6000828152600160205260408082208290555183917fbaa1eb22f2a492ba1a5fea61b8df4d27c6c8b5f3971e63bb58fa14ff72eedb7091a25050565b7f5f58e3a2316349923ce3780f8d587db2d72378aed66a8261c916544fa6846ca5610ac98133610c97565b6003546001600160a01b031615610af25760405162a2729b60e21b815260040160405180910390fd5b600380546001600160a01b0319166001600160a01b038416908117909155610b2990600080516020611a0e833981519152906110bc565b60035461072e90600080516020611a2e833981519152906001600160a01b03166110bc565b600082815260208190526040902060010154610b6a8133610c97565b6106918383611057565b600080516020611a2e833981519152610b8e81600061096c565b610b9c57610b9c8133610c97565b878614610bbb5760405162461bcd60e51b815260040161071b90611638565b878414610bda5760405162461bcd60e51b815260040161071b90611638565b6000610bec8a8a8a8a8a8a8a8a610995565b9050610bf88185610dea565b60005b89811015610c8157610c7182828d8d85818110610c1a57610c1a61167b565b9050602002016020810190610c2f91906115b7565b8c8c86818110610c4157610c4161167b565b905060200201358b8b87818110610c5a57610c5a61167b565b9050602002810190610c6c9190611691565b610e86565b610c7a816116ee565b9050610bfb565b50610c8b81610f9a565b50505050505050505050565b610ca1828261096c565b61072e57610cb9816001600160a01b031660146110c6565b610cc48360206110c6565b604051602001610cd5929190611875565b60408051601f198184030181529082905262461bcd60e51b825261071b916004016118ea565b610d0482610696565b15610d695760405162461bcd60e51b815260206004820152602f60248201527f54696d656c6f636b436f6e74726f6c6c65723a206f7065726174696f6e20616c60448201526e1c9958591e481cd8da19591d5b1959608a1b606482015260840161071b565b600254811015610dca5760405162461bcd60e51b815260206004820152602660248201527f54696d656c6f636b436f6e74726f6c6c65723a20696e73756666696369656e746044820152652064656c617960d01b606482015260840161071b565b610dd4814261191d565b6000928352600160205260409092209190915550565b610df382610645565b610e0f5760405162461bcd60e51b815260040161071b90611935565b801580610e2b5750600081815260016020819052604090912054145b61072e5760405162461bcd60e51b815260206004820152602660248201527f54696d656c6f636b436f6e74726f6c6c65723a206d697373696e6720646570656044820152656e64656e637960d01b606482015260840161071b565b6000846001600160a01b0316848484604051610ea392919061197f565b60006040518083038185875af1925050503d8060008114610ee0576040519150601f19603f3d011682016040523d82523d6000602084013e610ee5565b606091505b5050905080610f525760405162461bcd60e51b815260206004820152603360248201527f54696d656c6f636b436f6e74726f6c6c65723a20756e6465726c79696e6720746044820152721c985b9cd858dd1a5bdb881c995d995c9d1959606a1b606482015260840161071b565b85877fc2617efa69bab66782fa219543714338489c4e9e178271560a91b82c3f612b5887878787604051610f89949392919061198f565b60405180910390a350505050505050565b610fa381610645565b610fbf5760405162461bcd60e51b815260040161071b90611935565b600090815260016020819052604090912055565b610fdd828261096c565b61072e576000828152602081815260408083206001600160a01b03851684529091529020805460ff191660011790556110133390565b6001600160a01b0316816001600160a01b0316837f2f8788117e7eff1d82e926ec794901d17c78024a50270940304540a733656f0d60405160405180910390a45050565b611061828261096c565b1561072e576000828152602081815260408083206001600160a01b0385168085529252808320805460ff1916905551339285917ff6391f5c32d9c69d2a47ea670b442974b53935d1edc7fd64eb21e047a839171b9190a45050565b61072e8282610fd3565b606060006110d58360026119c1565b6110e090600261191d565b67ffffffffffffffff8111156110f8576110f86119e0565b6040519080825280601f01601f191660200182016040528015611122576020820181803683370190505b509050600360fc1b8160008151811061113d5761113d61167b565b60200101906001600160f81b031916908160001a905350600f60fb1b8160018151811061116c5761116c61167b565b60200101906001600160f81b031916908160001a90535060006111908460026119c1565b61119b90600161191d565b90505b6001811115611213576f181899199a1a9b1b9c1cb0b131b232b360811b85600f16601081106111cf576111cf61167b565b1a60f81b8282815181106111e5576111e561167b565b60200101906001600160f81b031916908160001a90535060049490941c9361120c816119f6565b905061119e565b5083156106645760405162461bcd60e51b815260206004820181905260248201527f537472696e67733a20686578206c656e67746820696e73756666696369656e74604482015260640161071b565b80356001600160a01b038116811461127957600080fd5b919050565b60008083601f84011261129057600080fd5b50813567ffffffffffffffff8111156112a857600080fd5b6020830191508360208285010111156112c057600080fd5b9250929050565b600080600080600080600060c0888a0312156112e257600080fd5b6112eb88611262565b965060208801359550604088013567ffffffffffffffff81111561130e57600080fd5b61131a8a828b0161127e565b989b979a50986060810135976080820135975060a09091013595509350505050565b60006020828403121561134e57600080fd5b81356001600160e01b03198116811461066457600080fd5b60008060008060008060a0878903121561137f57600080fd5b61138887611262565b955060208701359450604087013567ffffffffffffffff8111156113ab57600080fd5b6113b789828a0161127e565b979a9699509760608101359660809091013595509350505050565b6000602082840312156113e457600080fd5b5035919050565b600080604083850312156113fe57600080fd5b8235915061140e60208401611262565b90509250929050565b60008083601f84011261142957600080fd5b50813567ffffffffffffffff81111561144157600080fd5b6020830191508360208260051b85010111156112c057600080fd5b600080600080600080600080600060c08a8c03121561147a57600080fd5b893567ffffffffffffffff8082111561149257600080fd5b61149e8d838e01611417565b909b50995060208c01359150808211156114b757600080fd5b6114c38d838e01611417565b909950975060408c01359150808211156114dc57600080fd5b506114e98c828d01611417565b9a9d999c50979a969997986060880135976080810135975060a0013595509350505050565b60008060008060008060008060a0898b03121561152a57600080fd5b883567ffffffffffffffff8082111561154257600080fd5b61154e8c838d01611417565b909a50985060208b013591508082111561156757600080fd5b6115738c838d01611417565b909850965060408b013591508082111561158c57600080fd5b506115998b828c01611417565b999c989b509699959896976060870135966080013595509350505050565b6000602082840312156115c957600080fd5b61066482611262565b81835281816020850137506000828201602090810191909152601f909101601f19169091010190565b60018060a01b038716815285602082015260a06040820152600061162360a0830186886115d2565b60608301949094525060800152949350505050565b60208082526023908201527f54696d656c6f636b436f6e74726f6c6c65723a206c656e677468206d69736d616040820152620e8c6d60eb1b606082015260800190565b634e487b7160e01b600052603260045260246000fd5b6000808335601e198436030181126116a857600080fd5b83018035915067ffffffffffffffff8211156116c357600080fd5b6020019150368190038213156112c057600080fd5b634e487b7160e01b600052601160045260246000fd5b6000600019821415611702576117026116d8565b5060010190565b81835260006020808501808196508560051b810191508460005b8781101561178d5782840389528135601e1988360301811261174457600080fd5b8701803567ffffffffffffffff81111561175d57600080fd5b80360389131561176c57600080fd5b61177986828985016115d2565b9a87019a9550505090840190600101611723565b5091979650505050505050565b60a0808252810188905260008960c08301825b8b8110156117db576001600160a01b036117c684611262565b168252602092830192909101906001016117ad565b5083810360208501528881526001600160fb1b038911156117fb57600080fd5b8860051b9150818a60208301378181019150506020810160008152602084830301604085015261182c81888a611709565b6060850196909652505050608001529695505050505050565b60005b83811015611860578181015183820152602001611848565b8381111561186f576000848401525b50505050565b7f416363657373436f6e74726f6c3a206163636f756e74200000000000000000008152600083516118ad816017850160208801611845565b7001034b99036b4b9b9b4b733903937b6329607d1b60179184019182015283516118de816028840160208801611845565b01602801949350505050565b6020815260008251806020840152611909816040850160208701611845565b601f01601f19169190910160400192915050565b60008219821115611930576119306116d8565b500190565b6020808252602a908201527f54696d656c6f636b436f6e74726f6c6c65723a206f7065726174696f6e206973604082015269206e6f7420726561647960b01b606082015260800190565b8183823760009101908152919050565b60018060a01b03851681528360208201526060604082015260006119b76060830184866115d2565b9695505050505050565b60008160001904831182151516156119db576119db6116d8565b500290565b634e487b7160e01b600052604160045260246000fd5b600081611a0557611a056116d8565b50600019019056feb09aa5aeb3702cfd50b6b62bc4532604938f21248a27a1d5ca736082b6819cc1d8aa0f3194971a2a116679f7c2090f6939c8d4e01a2a8d7e41d55e5351469e63a2646970667358221220f9b2e46b5208be2cee3e2bb85f27eca10418a7e861a46517112cbdfe3586281164736f6c634300080900335f58e3a2316349923ce3780f8d587db2d72378aed66a8261c916544fa6846ca5b09aa5aeb3702cfd50b6b62bc4532604938f21248a27a1d5ca736082b6819cc1d8aa0f3194971a2a116679f7c2090f6939c8d4e01a2a8d7e41d55e5351469e63",
  "devdoc": {
    "kind": "dev",
    "methods": {
      "cancel(bytes32)": {
        "details": "Cancel an operation. Requirements: - the caller must have the 'proposer' role."
      },
      "execute(address,uint256,bytes,bytes32,bytes32)": {
        "details": "Execute an (ready) operation containing a single transaction. Emits a {CallExecuted} event. Requirements: - the caller must have the 'executor' role."
      },
      "executeBatch(address[],uint256[],bytes[],bytes32,bytes32)": {
        "details": "Execute an (ready) operation containing a batch of transactions. Emits one {CallExecuted} event per transaction in the batch. Requirements: - the caller must have the 'executor' role."
      },
      "getMinDelay()": {
        "details": "Returns the minimum delay for an operation to become valid. This value can be changed by executing an operation that calls `updateDelay`."
      },
      "getRoleAdmin(bytes32)": {
        "details": "Returns the admin role that controls `role`. See {grantRole} and {revokeRole}. To change a role's admin, use {_setRoleAdmin}."
      },
      "getTimestamp(bytes32)": {
        "details": "Returns the timestamp at with an operation becomes ready (0 for unset operations, 1 for done operations)."
      },
      "grantRole(bytes32,address)": {
        "details": "Grants `role` to `account`. If `account` had not been already granted `role`, emits a {RoleGranted} event. Requirements: - the caller must have ``role``'s admin role."
      },
      "hasRole(bytes32,address)": {
        "details": "Returns `true` if `account` has been granted `role`."
      },
      "hashOperation(address,uint256,bytes,bytes32,bytes32)": {
        "details": "Returns the identifier of an operation containing a single transaction."
      },
      "hashOperationBatch(address[],uint256[],bytes[],bytes32,bytes32)": {
        "details": "Returns the identifier of an operation containing a batch of transactions."
      },
      "isOperation(bytes32)": {
        "details": "Returns whether an id correspond to a registered operation. This includes both Pending, Ready and Done operations."
      },
      "isOperationDone(bytes32)": {
        "details": "Returns whether an operation is done or not."
      },
      "isOperationPending(bytes32)": {
        "details": "Returns whether an operation is pending or not."
      },
      "isOperationReady(bytes32)": {
        "details": "Returns whether an operation is ready or not."
      },
      "renounceRole(bytes32,address)": {
        "details": "Revokes `role` from the calling account. Roles are often managed via {grantRole} and {revokeRole}: this function's purpose is to provide a mechanism for accounts to lose their privileges if they are compromised (such as when a trusted device is misplaced). If the calling account had been revoked `role`, emits a {RoleRevoked} event. Requirements: - the caller must be `account`."
      },
      "revokeRole(bytes32,address)": {
        "details": "Revokes `role` from `account`. If `account` had been granted `role`, emits a {RoleRevoked} event. Requirements: - the caller must have ``role``'s admin role."
      },
      "schedule(address,uint256,bytes,bytes32,bytes32,uint256)": {
        "details": "Schedule an operation containing a single transaction. Emits a {CallScheduled} event. Requirements: - the caller must have the 'proposer' role."
      },
      "scheduleBatch(address[],uint256[],bytes[],bytes32,bytes32,uint256)": {
        "details": "Schedule an operation containing a batch of transactions. Emits one {CallScheduled} event per transaction in the batch. Requirements: - the caller must have the 'proposer' role."
      },
      "supportsInterface(bytes4)": {
        "details": "See {IERC165-supportsInterface}."
      },
      "updateDelay(uint256)": {
        "details": "Changes the minimum timelock duration for future operations. Emits a {MinDelayChange} event. Requirements: - the caller must be the timelock itself. This can only be achieved by scheduling and later executing an operation where the timelock is the target and the data is the ABI-encoded call to this function."
      }
    },
    "version": 1
  },
  "userdoc": {
    "kind": "user",
    "methods": {},
    "version": 1
  },
  "storageLayout": {
    "storage": [
      {
        "astId": 24,
        "contract": "contracts/ChelseaDAOTimelockController.sol:ChelseaDAOTimelockController",
        "label": "_roles",
        "offset": 0,
        "slot": "0",
        "type": "t_mapping(t_bytes32,t_struct(RoleData)19_storage)"
      },
      {
        "astId": 1608,
        "contract": "contracts/ChelseaDAOTimelockController.sol:ChelseaDAOTimelockController",
        "label": "_timestamps",
        "offset": 0,
        "slot": "1",
        "type": "t_mapping(t_bytes32,t_uint256)"
      },
      {
        "astId": 1610,
        "contract": "contracts/ChelseaDAOTimelockController.sol:ChelseaDAOTimelockController",
        "label": "_minDelay",
        "offset": 0,
        "slot": "2",
        "type": "t_uint256"
      },
      {
        "astId": 7753,
        "contract": "contracts/ChelseaDAOTimelockController.sol:ChelseaDAOTimelockController",
        "label": "chelseaDAO",
        "offset": 0,
        "slot": "3",
        "type": "t_address"
      }
    ],
    "types": {
      "t_address": {
        "encoding": "inplace",
        "label": "address",
        "numberOfBytes": "20"
      },
      "t_bool": {
        "encoding": "inplace",
        "label": "bool",
        "numberOfBytes": "1"
      },
      "t_bytes32": {
        "encoding": "inplace",
        "label": "bytes32",
        "numberOfBytes": "32"
      },
      "t_mapping(t_address,t_bool)": {
        "encoding": "mapping",
        "key": "t_address",
        "label": "mapping(address => bool)",
        "numberOfBytes": "32",
        "value": "t_bool"
      },
      "t_mapping(t_bytes32,t_struct(RoleData)19_storage)": {
        "encoding": "mapping",
        "key": "t_bytes32",
        "label": "mapping(bytes32 => struct AccessControl.RoleData)",
        "numberOfBytes": "32",
        "value": "t_struct(RoleData)19_storage"
      },
      "t_mapping(t_bytes32,t_uint256)": {
        "encoding": "mapping",
        "key": "t_bytes32",
        "label": "mapping(bytes32 => uint256)",
        "numberOfBytes": "32",
        "value": "t_uint256"
      },
      "t_struct(RoleData)19_storage": {
        "encoding": "inplace",
        "label": "struct AccessControl.RoleData",
        "members": [
          {
            "astId": 16,
            "contract": "contracts/ChelseaDAOTimelockController.sol:ChelseaDAOTimelockController",
            "label": "members",
            "offset": 0,
            "slot": "0",
            "type": "t_mapping(t_address,t_bool)"
          },
          {
            "astId": 18,
            "contract": "contracts/ChelseaDAOTimelockController.sol:ChelseaDAOTimelockController",
            "label": "adminRole",
            "offset": 0,
            "slot": "1",
            "type": "t_bytes32"
          }
        ],
        "numberOfBytes": "64"
      },
      "t_uint256": {
        "encoding": "inplace",
        "label": "uint256",
        "numberOfBytes": "32"
      }
    }
  }
}